:1000000012C0189518951895189518951895189563
:100010001895189518951895189518951895189578
:100020001895189518958FE58DBFC8E3E0E24E2E20
:1000300084E08EBFD4E0F4E05F2EA89584B7082E4C
:10004000877F84BF88E1992781BD91BDEEEFF3E002
:10005000A0E6B0E088278D933197E9F766248FEF0B
:1000600087BB8FEF81BBA098A198A29880E0809376
:10007000620088E880936B0080E08093680081E0F4
:10008000809367008EE18093610080E08093600040
:100090004091610000916000041710F009F0BBC0AE
:1000A00098995DC0A7E6B0E08C918F5F8C9388EC47
:1000B00090E010D700916700013009F004C088E893
:1000C00080936B0045C0023009F004C081E1809349
:1000D0006B003EC0033009F004C083E380936B00E3
:1000E00037C0043009F004C08CEC80936B0030C042
:1000F000053009F004C083E380936B0029C006300B
:1001000009F004C08FEF80936B0022C0073009F024
:1001100004C085E580936B001BC0083009F004C063
:1001200083E380936B0014C0093009F004C08EEEA5
:1001300080936B000DC00A3009F004C087E78093FC
:100140006B0006C081E08093670081E180936B00C3
:1001500080E08093620080E0809368005CC0009142
:100160006200013009F006C071E172BBA3E6B0E0A5
:100170008C9188BBEF93FF93E2E9F0E0A2D6FF9168
:10018000EF9100916200023009F006C072E272BB8A
:10019000A4E6B0E08C9188BBEF93FF93E2E9F0E036
:1001A00090D6FF91EF9100916200033009F006C0F4
:1001B00074E472BBA5E6B0E08C9188BBEF93FF932B
:1001C000E2E9F0E07ED6FF91EF9100916200043009
:1001D00009F006C078E872BBA6E6B0E08C9188BB57
:1001E000EF93FF93E2E9F0E06CD6FF91EF91A2E686
:1001F000B0E08C918F5F8C9300916200053009F024
:1002000003C081E080936200A0E6B0E08C918F5F34
:100210008C9308F43DCF999908C0A1E6B0E08C9189
:10022000865F8C9388EC90E055D69A9908C0A1E639
:10023000B0E08C918A508C9388EC90E04BD6009182
:100240006100003009F003C08AE0809361000091F2
:1002500061000A3F09F003C080EF809361000091C4
:100260006700013009F09FC000916800033010F072
:1002700009F00DC080E08093630080E0809364000B
:1002800080E08093650080916B0080936600009110
:100290006800033080E010F009F081E08F93009156
:1002A0006800073081E010F009F080E09F91892319
:1002B000882309F40DC080E08093630080E0809380
:1002C000640080916B008093650080E080936600FD
:1002D00000916800073080E010F009F081E08F9312
:1002E000009168000B3081E010F009F080E09F91F0
:1002F0008923882309F40DC080E0809363008091F6
:100300006B008093640080E08093650080E08093C0
:100310006600009168000B3080E010F009F081E089
:100320008F93009168000F3081E010F009F080E0B9
:100330009F918923882309F40DC080916B008093DD
:10034000630080E08093640080E08093650080E03B
:100350008093660091E0ABE6B0E0D5D5A8E6B0E0CA
:100360008C918F5F8C9300916800003109F008C078
:1003700080E080936800A9E6B0E08C918F5F8C9359
:10038000009169000A3009F00BC0A7E6B0E08C913B
:100390008F5F8C9380E08093690081E180936B0094
:1003A00080E08093600000916700023009F02BC16B
:1003B00000916800033010F009F00DC080916B00CF
:1003C0008093630080E08093640080E08093650008
:1003D00080E08093660000916800043081E008F4BA
:1003E00080E08F9300916800073081E010F009F001
:1003F00080E09F918923882309F40DC080E08093D9
:10040000630080916B008093640080E080936500BE
:1004100080E08093660000916800083081E008F475
:1004200080E08F93009168000B3081E010F009F0BC
:1004300080E09F918923882309F40DC080E0809398
:10044000630080E08093640080916B00809365007E
:1004500080E080936600009168000C3081E008F431
:1004600080E08F93009168000F3081E010F009F078
:1004700080E09F918923882309F40DC080E0809358
:10048000630080E08093640080E080936500809149
:100490006B008093660000916800003181E008F4F1
:1004A00080E08F9300916800023181E010F009F044
:1004B00080E09F918923882309F40DC080E0809318
:1004C000630080E08093640080E080936500809109
:1004D0006B008093660000916800033181E008F4AE
:1004E00080E08F9300916800063181E010F009F000
:1004F00080E09F918923882309F40DC080E08093D8
:10050000630080E08093640080916B0080936500BD
:1005100080E08093660000916800073181E008F474
:1005200080E08F93009168000A3181E010F009F0BB
:1005300080E09F918923882309F40DC080E0809397
:10054000630080916B008093640080E0809365007D
:1005500080E080936600009168000B3181E008F430
:1005600080E08F93009168000D3181E010F009F078
:1005700080E09F918923882309F40DC080916B004E
:100580008093630080E08093640080E08093650046
:1005900080E080936600009168000E3010F009F052
:1005A00004C091E0ABE6B0E0A4D4009168000F3045
:1005B00008F404C091E0ABE6B0E0A5D4A8E6B0E052
:1005C0008C918F5F8C93009168000E3109F008C008
:1005D00080E080936800A9E6B0E08C918F5F8C93F7
:1005E000009169000A3009F00BC0A7E6B0E08C91D9
:1005F0008F5F8C9380E08093690083E380936B002E
:1006000080E08093600000916700033009F0E0C053
:1006100000916800033010F009F00DC080916B006C
:100620008093630080E08093640080E080936500A5
:1006300080E08093660000916800033009F00CC0F0
:1006400088E88093630081E18093640080E0809378
:10065000650080E08093660000916800043081E0CE
:1006600008F480E08F9300916800073081E010F07B
:1006700009F080E09F918923882309F40DC080E070
:100680008093630080916B008093640080E080938E
:10069000650080E08093660000916800073009F0F3
:1006A0000CC080E08093630088E88093640081E15F
:1006B0008093650080E080936600009168000830B8
:1006C00081E008F480E08F93009168000B3081E0B6
:1006D00010F009F080E09F918923882309F40DC070
:1006E00080E08093630080E08093640080916B00E1
:1006F0008093650080E080936600009168000B3075
:1007000009F00CC080E08093630080E08093640077
:1007100088E88093650081E180936600009168001D
:100720000C3081E008F480E08F93009168000E3077
:1007300081E010F009F080E09F918923882309F47B
:100740000DC080E08093630080E08093640080E0CF
:100750008093650080916B00809366000091680033
:100760000F3009F00CC081E18093630080E080933A
:10077000640080E08093650088E88093660091E0E3
:10078000ABE6B0E0B6D3A8E6B0E08C918F5F8C9377
:1007900000916800003109F008C080E08093680093
:1007A000A9E6B0E08C918F5F8C93009169000A30CC
:1007B00009F00BC0A7E6B0E08C918F5F8C9380E0CE
:1007C000809369008CEC80936B0080E080936000E4
:1007D00000916700043009F0E0C000916800023029
:1007E00010F009F00DC080E08093630080E08093FA
:1007F000640080E08093650080916B0080936600C8
:1008000000916800033009F00CC080E08093630021
:1008100080E08093640088E88093650081E18093A4
:10082000660000916800043081E008F480E08F9356
:1008300000916800063081E010F009F080E09F919F
:100840008923882309F40DC080E08093630080E051
:100850008093640080916B008093650080E08093BA
:10086000660000916800073009F00CC080E08093BA
:10087000630088E88093640081E18093650080E0F4
:100880008093660000916800083081E008F480E001
:100890008F93009168000A3081E010F009F080E049
:1008A0009F918923882309F40DC080E08093630021
:1008B00080916B008093640080E08093650080E00D
:1008C00080936600009168000B3009F00CC088E846
:1008D0008093630081E18093640080E080936500F1
:1008E00080E080936600009168000C3081E008F49D
:1008F00080E08F93009168000E3081E010F009F0E5
:1009000080E09F918923882309F40DC080916B00BA
:100910008093630080E08093640080E080936500B2
:1009200080E080936600009168000F3009F00CC0F1
:1009300081E18093630080E08093640080E0809395
:10094000650088E88093660091E0ABE6B0E0DBD21A
:10095000A8E6B0E08C918F5F8C9300916800003125
:1009600009F008C080E080936800A9E6B0E08C91AF
:100970008F5F8C93009169000A3009F00BC0A7E6E5
:10098000B0E08C918F5F8C9380E08093690083E36B
:1009900080936B0080E080936000009167000530D9
:1009A00009F091C100916800023010F009F00DC00B
:1009B00080916B008093630080E08093640080E00E
:1009C0008093650080E080936600009168000330AA
:1009D00009F00CC088E88093630081E18093640093
:1009E00080E08093650080E080936600009168005D
:1009F000043081E008F480E08F93009168000630B5
:100A000081E010F009F080E09F918923882309F4A8
:100A10000DC080E08093630080916B008093640040
:100A200080E08093650080E080936600009168001C
:100A3000073009F00CC080E08093630088E8809361
:100A4000640081E18093650080E0809366000091FE
:100A50006800083081E008F480E08F93009168001E
:100A60000A3081E010F009F080E09F91892388230B
:100A700009F40DC080E08093630080E080936400FF
:100A800080916B008093650080E080936600009108
:100A900068000B3009F00CC080E08093630080E0B8
:100AA0008093640088E88093650081E1809366000C
:100AB000009168000C3081E008F480E08F93009191
:100AC00068000E3081E010F009F080E09F918923EA
:100AD000882309F40DC080E08093630080E0809358
:100AE000640080E08093650080916B0080936600D5
:100AF000009168000F3081E008F480E08F9300914E
:100B00006800003181E010F009F080E09F918923B6
:100B1000882309F40DC080E08093630080E0809317
:100B2000640080E08093650080916B008093660094
:100B300000916800013109F00CC080E080936300EF
:100B400080E08093640088E88093650081E1809371
:100B5000660000916800023181E008F480E08F9324
:100B600000916800043181E010F009F080E09F916D
:100B70008923882309F40DC080E08093630080E01E
:100B80008093640080916B008093650080E0809387
:100B9000660000916800053109F00CC080E0809388
:100BA000630088E88093640081E18093650080E0C1
:100BB0008093660000916800063181E008F480E0CF
:100BC0008F9300916800083181E010F009F080E017
:100BD0009F918923882309F40DC080E080936300EE
:100BE00080916B008093640080E08093650080E0DA
:100BF0008093660000916800093109F00CC088E814
:100C00008093630081E18093640080E080936500BD
:100C100080E080936600009168000A3181E008F46A
:100C200080E08F93009168000C3181E010F009F0B2
:100C300080E09F918923882309F40DC080916B0087
:100C40008093630080E08093640080E0809365007F
:100C500080E080936600A8E6B0E08C918F5F8C9373
:100C6000009168000E3109F008C080E080936800B0
:100C7000A9E6B0E08C918F5F8C93009169000A30F7
:100C800009F00BC0A7E6B0E08C918F5F8C9380E0F9
:100C9000809369008FEF80936B00009168000E30A5
:100CA00010F009F004C091E0ABE6B0E022D1009171
:100CB00068000F3008F404C091E0ABE6B0E023D147
:100CC00080E08093600000916700063009F040C02A
:100CD000009168000F3010F009F010C080916B0097
:100CE0008093630080916B008093640080916B001F
:100CF0008093650080916B0080936600A8E6B0E069
:100D00008C918F5F8C9300916800003109F00DC0C9
:100D1000ABE6B0E08C9180958C9380E08093680086
:100D2000A9E6B0E08C918F5F8C93009169000A3046
:100D300009F00BC0A7E6B0E08C918F5F8C9380E048
:100D40008093690085E580936B0080E0809360006C
:100D500000916700073009F029C080916B008093F3
:100D6000630080916B008093640080916B0080939E
:100D7000650080916B008093660091E0ABE6B0E087
:100D8000B8D0A9E6B0E08C918F5F8C930091690098
:100D9000043609F00BC0A7E6B0E08C918F5F8C930E
:100DA00080E08093690083E380936B00009167008B
:100DB000083009F029C080916B0080936300809116
:100DC0006B008093640080916B008093650080913C
:100DD0006B008093660091E0ABE6B0E08AD0A9E6B4
:100DE000B0E08C918F5F8C9300916900043609F01C
:100DF0000BC0A7E6B0E08C918F5F8C9380E080936E
:100E000069008EEE80936B0000916700093009F055
:100E100029C080916B008093630080916B00809368
:100E2000640080916B008093650080916B008093DB
:100E3000660091E0ABE6B0E05CD0A9E6B0E08C9152
:100E40008F5F8C9300916900043609F00BC0A7E610
:100E5000B0E08C918F5F8C9380E08093690087E78E
:100E600080936B00009167000A3009F027C08091E1
:100E70006B008093630080916B008093640080918D
:100E80006B008093650080916B008093660091E019
:100E9000ABE6B0E02ED0A9E6B0E08C918F5F8C93EA
:100EA00000916900043609F009C081E08093670071
:100EB00080E08093690088E880936B00E6C8F8942E
:100EC000FFCF3197F1F70895689462F80895E89498
:100ED00062F80895EF93FF93EE27E82BE92B31F0AA
:100EE000EAEFF0E03197F1F70197D1F7FF91EF9139
:100EF0000895903039F08C91880F08F481609A95AC
:100F0000D9F78C930895903039F08C91869508F438
:0A0F100080689A95D9F78C93089534
:00000001FF
